{"abi":[{"type":"function","name":"onSliceFilled","inputs":[{"name":"sliceIndex","type":"uint256","internalType":"uint256"},{"name":"maker","type":"address","internalType":"address"},{"name":"makingAmount","type":"uint256","internalType":"uint256"},{"name":"takingAmount","type":"uint256","internalType":"uint256"}],"outputs":[],"stateMutability":"nonpayable"},{"type":"event","name":"SliceFilled","inputs":[{"name":"sliceIndex","type":"uint256","indexed":true,"internalType":"uint256"},{"name":"maker","type":"address","indexed":true,"internalType":"address"},{"name":"taker","type":"address","indexed":true,"internalType":"address"},{"name":"makingAmount","type":"uint256","indexed":false,"internalType":"uint256"},{"name":"takingAmount","type":"uint256","indexed":false,"internalType":"uint256"}],"anonymous":false}],"bytecode":{"object":"0x608060405234801561000f575f80fd5b506101028061001d5f395ff3fe6080604052348015600e575f80fd5b50600436106026575f3560e01c8063ddb3bad214602a575b5f80fd5b603960353660046089565b603b565b005b604080518381526020810183905232916001600160a01b0386169187917faf1ea7cdc3f19cf699e4437341c838e1729bdff262531bbb6b74f4a520630ef5910160405180910390a450505050565b5f805f8060808587031215609b575f80fd5b8435935060208501356001600160a01b038116811460b7575f80fd5b9396939550505050604082013591606001359056fea2646970667358221220b112c89f0bd44702784b7b9686b149df3a9b71ba348a061d954d1cf0fd1b285164736f6c63430008140033","linkReferences":{}},"methodIdentifiers":{"onSliceFilled(uint256,address,uint256,uint256)":"ddb3bad2"},"id":0}